:100000000C94DA030C94F7030C94F7030C94F703A5
:100010000C94F7030C94F7030C94F7030C94F70378
:100020000C94F7030C94F7030C9460160C94F01ADC
:100030000C94302E0C94F7030C94F7030C94F703F4
:100040000C94F7030C94F7030C94F7030C94F70348
:100050000C94F7030C9437170C94F7030C94F703E4
:100060000C94F7030C94F7030C94F7030C94F70328
:100070000C94F7030C94F7030C94F7030C94F70318
:100080000C94F7030C94F7030C94F7030C94F70308
:100090000C94F7030C94F7030C94F7030C94F703F8
:1000A0000C94F7030C94F7030C94F70305010980F3
:1000B000A101850319012AB700150126B700950192
:1000C00075108100C0050C0901A101850419012AE0
:1000D000A002150126A002950175108100C005013E
:1000E0000906A1018505050719E029E71500250185
:1000F0009508750181020507190029EF15002501F2
:1001000095F075018102050819012905950575010C
:100110009102950175039101C005010902A1010930
:1001200001A100050919012905150025019505758D
:10013000018102950175038101050109300931151D
:1001400081257F95027508810609381581257F95DF
:100150000175088106050C0A38021581257F950175
:1001600075088106C0C005010906A101050719E04F
:1001700029E715002501950875018102950175088B
:1001800081010507190029FF150026FF0095067556
:100190000881000508190129059505750191029549
:1001A0000175039101C00000000000000000000084
:1001B000000000000000000000000000000000003F
:1001C000000000000000000000000000000000002F
:1001D000000000000000000000000000000000001F
:1001E000000000000000000000000000000000000F
:1001F00000000000000000000000000000000000FF
:1002000000000000000000000000000000000000EE
:1002100000000000000000000000000000000000DE
:1002200000000000000000000000000000000000CE
:100230000000000000007FA1C57FA1C57FA1C57F90
:10024000A1C57FA1C57FA1C57FA1C57FA1C57FA194
:10025000C57FA1C57FA1C57FA1C57FA1C57FA1C560
:100260007FA1C57FA1C57FA1C57FA1C57FA1C57F96
:10027000A1C57FA1C57FA1C57FA1C57FA1C57FA164
:10028000C57FA1C57FA1C57FA1C57FA1C57FA1C530
:100290007FA1C57FA1C57FA1C57FA1C57FA1C57F66
:1002A000A1C57FA1C57FA1C57FA1C57FA1C57FA134
:1002B000C57FA1C57FA1C57FA1C57FA1C57FA1C500
:1002C0007FA1C57FA1C500AAFA00AAFA00AAFA0078
:1002D000AAFA00AAFA00AAFA00AAFA00AAFA00AA40
:1002E000FA00AAFA00AAFA00AAFA00AAFA00AAFAE0
:1002F00000AAFA00AAFA00AAFA00AAFA00AAFA00CA
:10030000AAFA00AAFA00AAFA00AAFA00AAFA00AA0F
:10031000FA00AAFA00AAFA00AAFA00AAFA00AAFAAF
:1003200000AAFA00AAFA00AAFA00AAFA00AAFA0099
:10033000AAFA00AAFA00AAFA00AAFA00AAFA00AADF
:10034000FA00AAFA00AAFA00AAFA00AAFA00AAFA7F
:1003500000AAFA00AAFA000101010101010101014C
:100360000202020202020202020303030303030366
:100370000304040404040404050505050506060633
:100380000606070707070708080808090909090AF0
:100390000A0A0B0B0B0C0C0C0D0D0D0E0E0E0F0F95
:1003A0000F10101111111212131314141515161623
:1003B0001717181819191A1A1B1B1C1D1D1E1E1F92
:1003C0002020212222232424252626272829292AE1
:1003D0002B2C2D2D2E2F3031323233343536373809
:1003E000393A3B3C3D3E3F40414243444546474805
:1003F000494A4C4D4E4F50515354555658595A5BDB
:100400005D5E5F616264656668696B6C6D6F70727A
:10041000737577787A7B7D7E8082838587888A8CE6
:100420008E8F91939596989A9C9EA0A2A3A5A7A91A
:10043000ABADAFB1B3B5B7BABCBEC0C2C4C6C9CB11
:10044000CDCFD1D4D6D8DBDDDFE2E4E7E9EBEEF0C7
:10045000F3F5F8FAFDFF00572B003900E100E0004A
:1004600000001E00140004001D0000414D001F008C
:10047000015716001B00E3002A01200008000700B6
:100480000600E2002C002100150009001900E00020
:100490004A00220017000A00050000004C01C45C5D
:1004A00002570000035700002900500A04570000BB
:1004B00001580000290023001C000B00110000005F
:1004C0004C00240018000D001000004152002500CF
:1004D0000C000E00360000422A00260012000F0019
:1004E00037005000280027001300334238714F00B6
:1004F00051002D0031003443E5002E00000029009A
:100500002B003900D85C010000003A00055750006C
:100510003B000100C75C3B00520051003E00E3007D
:100520002B003C0006574F006C00E2002C003D0001
:100530002F002F024300E000C65C3E003000300276
:10054000440000004C000100010000000100000018
:10055000290001000100000001000000CB5C5103F4
:1005600050034F0352030000CA5C24002400210002
:100570001E00010001002500250022001F00370099
:100580002A002600260023002000270058004300F0
:100590005500560057002E00010045005400010090
:1005A0000100010000000100010001000100010044
:1005B000000001004A025003010001000100010097
:1005C0005203510301000100010001004D024F03DD
:1005D0000100010001000100010001000100010013
:1005E0000100010001000100010000000100010004
:1005F00001000000010000000100010001000000F6
:100600000100000001002C5DCC5CCD5C010000000D
:1006100001000100C85CC95C0100A90001000100E3
:1006200001000100010001001003010001000100B0
:100630000100A8000100010001000100010001000B
:100640000100005C0100AE00010001000000290073
:10065000010001000100010000000100F400F200AF
:100660000100010001000100F000F10001000100A3
:10067000F5000100F500F30001000100F4000100A5
:100680000100010001000100010001000100010062
:100690000100000001000100010000000100000055
:1006A0000100010001000000010000000100010044
:1006B0000100010001000000010001000100010033
:1006C0000100F40001000100010001000100F5003B
:1006D000290001000100010001000100F6000100F5
:1006E0000100010001000100010001000100010002
:1006F00001000100000009025400030100A0FA09F2
:100700000400000103010100092111010001224040
:10071000000705810308000A090401000103010222
:1007200000092111010001224D0007058203080084
:100730000A0904020001030000000921110100015F
:10074000226D000705830320000A1201100100003A
:10075000000897327649010001020001200345009C
:10076000720067006F0044006F00780020004500B1
:100770005A00200047006C006F0077000000300333
:100780005A005300410020005400650063006800D7
:100790006E006F006C006F006700790020004C0055
:1007A000610062007300200049006E0063000000D9
:1007B0000403090411241FBECFEFDAE0DEBFCDBF72
:1007C00026E0A8EAB3E001C01D92A734B207E1F722
:1007D00013E0A0E0B1E0EAE3F7E602C005900D9275
:1007E000A83AB107D9F70E94862B0C9443330C9496
:1007F0000000E8EDF0E080818E7F80831092E200BF
:100800001092DA001092E100A0EEB0E08C918160CD
:100810008C9380818F77808319BCA7EDB0E08C9199
:100820008E7F8C9380818F7E80831092080608953E
:100830002091E4003091E50095E6A9012091EC00BB
:10084000822F817020FF06C08091E80080FF06C0E3
:1008500080E008952091E80022FD1AC080912D06C5
:10086000882389F0853089F08091EB0085FD0FC0E9
:100870002091E4003091E50042175307F9F29150BE
:10088000E1F684E0089582E0089583E0089581E030
:100890000895EF92FF920F931F93CF937C018B01EA
:1008A0000E941804C82F811117C08091E80085FDAF
:1008B0000BC08091E8008E778093E8000E941804B6
:1008C000882399F3C82F08C0F70181917F01809395
:1008D000F1000150110949F78C2FCF911F910F9111
:1008E000FF90EF90089580912F0687FF13C08091AD
:1008F000E80082FF06C08091E8008B778093E800D3
:1009000004C080912D068111F2CF089580912D06AB
:100910008823D9F38091E80080FFF8CF8091E80028
:100920008E77ECCF982F9093E900242F762F50E00C
:10093000891731F07091EC002091ED005091F0009A
:1009400021FD07C09F5F973071F78093E90081E038
:1009500008953091EB003E7F3093EB003091ED0035
:100960003D7F3093ED003091EB0031603093EB0030
:100970007093EC002093ED005093F0002091EE0076
:1009800027FDE0CF80E00895CF92DF92EF92FF92B3
:100990000F931F93CF93DF93C8EDD0E088818F7EB4
:1009A0008883E7EDF0E080818160808384E082BF0E
:1009B00081E08093080688818E7F888302EE10E0B4
:1009C000F80110821092DA0081EEC82ED12CF601C7
:1009D000108288818F778883888180688883888166
:1009E0008F7D888319BC10922D0610922E061092CE
:1009F0002C0610922B0690EEE92EF12CF701808147
:100A00008B7F808388818160888342E060E080E022
:100A10000E949204F60180818E7F8083F80180819C
:100A200081608083808188608083F70180818E7FF0
:100A30008083888180618883DF91CF911F910F919E
:100A4000FF90EF90DF90CF900895FC0180913506E4
:100A50009091360686179707A0F06115710529F465
:100A60009091E8009E779093E80090E06115710501
:100A700051F4911108C08091E80082FF34C080E0F9
:100A80000895BC01F2CF80912D068823C1F18530F5
:100A9000C1F18091E80083FD30C08091E80082FDC3
:100AA000EACF8091E80080FFE1CF8091F3002091B0
:100AB000F200382F6115710519F02830310558F012
:100AC00091E02830310509F090E02091E8002E7780
:100AD0002093E800CBCF81918093F10061507109A0
:100AE0002F5F3F4FE7CF80912D06882341F085305F
:100AF00041F08091E80083FFBECF81E0089582E05D
:100B0000089583E0089580910A0608959091F40570
:100B1000803F59F48091F50587FF0DC01092F505CF
:100B200091110BC01092F00508C0813F81F48091B3
:100B3000F50518169CF3992381F08091F6059091A4
:100B4000F705892B09F064C01092ED050895823FE6
:100B500049F497FFF0CF1092F4058091F5058111CB
:100B6000ECCFE0CF833F19F41916ACF3E4CF20911A
:100B7000F605893F29F41216F4F61092F605DBCF3C
:100B80008A3F19F427FFD7CFF8CF2091F7058B3F85
:100B900029F427FFD0CF1092F705CDCF8C3F19F461
:100BA0001216CCF3C8CF843F31F48091F3058E7FC9
:100BB0008093F305C0CF853F21F48091F3058D7FAD
:100BC000F7CF863F21F48091F3058B7FF1CF873FEC
:100BD00021F48091F305877FEBCF883F21F480914A
:100BE000F3058F7EE5CF8D3F31F48091C0058E7F78
:100BF0008093C005A0CF8E3F21F48091C0058D7FEA
:100C0000F7CF8F3F09F097CF8091C0058B7FF0CF52
:100C100008958091C00580FD1AC081FD14C082FD39
:100C200014C08091ED05882391F08C3370F427E097
:100C3000829FC00111246CE370E00E944B2F862F2D
:100C4000672B29F0089583E0089587E0089581E0F7
:100C500008958091C00580FD16C081FD16C082FDFB
:100C600018C08091F005882391F08C3390F423E232
:100C7000829FC00111246CE370E00E944B2F862FED
:100C8000672B49F0089588E0089581E1089585E093
:100C9000089583E2089581E00895803F31F40E9431
:100CA000290681958093F5050895813F19F40E94E6
:100CB0002906F8CF823F31F40E942906819580935E
:100CC000F4050895833F19F40E942906F8CF893F5F
:100CD00029F40E9409068093F60508958A3F21F4BD
:100CE0000E9409068195F7CF8B3F31F40E940906D7
:100CF00081958093F70508958C3F19F40E940906A9
:100D0000F8CF843F31F48091F30581608093F3053F
:100D10000895853F21F48091F3058260F7CF863FE7
:100D200021F48091F3058460F1CF873F21F4809115
:100D3000F3058860EBCF883F21F48091F305806153
:100D4000E5CF8D3F31F48091C00581608093C0056F
:100D500008958E3F21F48091C0058260F7CF8F3FC8
:100D6000B9F78091C0058460F1CF9C014FB7F8942A
:100D70008091BC059091BD05A091BE05B091BF05C5
:100D80004FBF821B930B08952091B3012223C9F01A
:100D90002091D90527FF15C0E62FE695E695E69543
:100DA000EE31D8F4E80FF92FF11D677021E030E043
:100DB00001C0220F6A95EAF72095828128232283B9
:100DC0000895FC01329608962191621303C0DF0159
:100DD00011971C92E817F907B9F708952091B3010C
:100DE0002223C1F02091D90527FF14C0E62FE695F4
:100DF000E695E695EE31F8F4E80FF92FF11D6770EE
:100E000021E030E001C0220F6A95EAF78281822B4F
:100E100082830895FC0132962FEF30E041916417F0
:100E200051F02F3F19F4411101C0232F3F5F36309D
:100E3000A9F72F3F09F40895820F911D27FD9A9578
:100E4000FC0162830895CF92DF92EF92FF926C01D2
:100E5000EE24FF2420E0C114D104E104F10419F0D0
:100E6000C701B60120E1C72ED82EE92EFF24C114F8
:100E7000D104E104F10419F0285FC701B6016B0148
:100E80007C0154E0F694E794D794C7945A95D1F72F
:100E9000C114D104E104F10419F02C5FC701B601BB
:100EA0006B017C0142E0F694E794D794C7944A958D
:100EB000D1F7C114D104E104F10419F02E5FC70188
:100EC000B6019695879577956795672B682B692B63
:100ED00009F02F5F822FFF90EF90DF90CF90089561
:100EE0008091B70581111092B70508958095909172
:100EF000B60598239093B60508958091B605909114
:100F0000B505892B9091B405892B8093A803909106
:100F1000B7059923A1F0892B8093A8038091B30191
:100F2000882341F18091D90587FF24C08EE1EAEA48
:100F3000F3E090E0815000F591110E947007E0917C
:100F4000DB05F091DC053097E1F08091B301882357
:100F500059F08091D90587FF07C08091A80380933D
:100F6000A90385E08093A8030280F381E02D88EA3D
:100F700093E0099486E0DBCF21912223D9F29F5F91
:100F8000D9CF0895E92FEE0FE90FEE0F8E0F982FAE
:100F9000977086958695869525E0829FF0011124AD
:100FA000E458FA4F50E040E080E0219130E0092E13
:100FB00002C0369527950A94E2F721703327042E54
:100FC00001C0220F0A94EAF7822B4F5F5F4F453032
:100FD000510559F70895E92FEE0FE90FEE0F8E0F27
:100FE000982F977041E001C0440F9A95EAF78695D3
:100FF0008695869595E0899FF0011124E458FA4F73
:1010000030E020E070E05191DF011197CB01022E1A
:1010100002C0969587950A94E2F78170819585279D
:10102000842385278C932F5F3F4F2530310559F757
:10103000089580917B0590914A05981301C0089509
:101040008F5F8770FACF882341F080959091B50526
:1010500089238093B5050C947D070895882339F082
:101060009091B505982B9093B5050C947D07089544
:10107000882321F00E9476070C947D070895882329
:1010800039F09091B605982B9093B6050C947D0796
:10109000089520913F05309140052817390771F0D8
:1010A0009093400580933F05E091DB05F091DC05CE
:1010B000309721F00084F185E02D09940895209166
:1010C0003D0530913E052817390771F090933E0594
:1010D00080933D05E091DB05F091DC05309721F030
:1010E0000680F781E02D09940895E091DB05F091E9
:1010F000DC05309721F00190F081E02D099480E02B
:101100000895CF93DF93EC0181E0898B8091B60540
:101110009F81892B8093B6058091B5059885892B91
:101120008093B5050E947D07EA81FB81309739F0F5
:101130006C897D89CE010696DF91CF910994DF916C
:10114000CF910895EF92FF920F931F93CF93DF9368
:10115000EC018A85811139C0EB80FC8087E5F81AA3
:1011600026E12E9DC0012F9D900D1124DC01A45F6E
:10117000BE4F1496ED91FC911597309731F054962F
:101180006D917C918E5E9E4F099586E18E9D8001CA
:101190008F9D100D1124045F1E4FF80187810E945E
:1011A0007607F8018085982F90958091B505892361
:1011B0008093B5050E947D07188219861B861E82C2
:1011C0001D821092420510924105DF91CF911F912F
:1011D0000F91FF90EF900895FA01811101C0FB017A
:1011E00009948033910538F5880F991F880F991F4E
:1011F000FC01ED53FE4F5281338180818370E18188
:10120000A82FB0E070E9879FC001112489509C4F3E
:10121000E80FF92FF11DB4976083FC01E50FF11D74
:10122000B4974083830F911DFC01B4972083AB508A
:10123000BC4F81E08C930895FF920F931F93CF933F
:10124000DF93182F062FF42ED0E0C0E02F2D402F73
:10125000612FCE010E94F1082196C033D105B1F76C
:10126000DF91CF911F910F91FF90089580913E06DD
:10127000837011F41092B70180913E068C7F8160DB
:1012800080933E0608950C941C090C94F1080F936A
:101290001F9310E0F801EE0FFF1FE95EFC4F9081F5
:1012A000905797FD9195000F111FF801E85EFC4FD4
:1012B00000810052110B2003F001219FF00D112439
:1012C00008E310E0091B110997FD139540039001F5
:1012D000419F300D1124E20FF31F9F01220F331F96
:1012E0002E0F3F1F37FF02C021583F4F220F232FE1
:1012F000221F330B620F1F910F9108950F931F93BD
:10130000522F10E0F801EE0FFF1FE85EFC4FA081A6
:10131000A052BB0B9D015203F001539FF00D11240D
:10132000000F111FD801A95EBC4F0C910057110B83
:1013300040039001419F300D11242E0F3F1F37FFB6
:1013400002C0215C3F4F96E0359527959A95E1F7CD
:10135000620F1F910F9108950F931F93522F10E06A
:10136000F801EE0FFF1FE85EFC4FA081A052BB0BFF
:101370009D015203F001539FF00D1124000F111F26
:10138000D801A95EBC4F0C910057110B400390018E
:10139000419F300D11242E0F3F1F37FF02C02158EF
:1013A0003F4F220F232F221F330B620F1F910F91EC
:1013B0000895EF920F93972F23E0029FB00111241D
:1013C000759567956E0D792F0F91EF900895322FD7
:1013D00050E0FA01EE0FFF1FE85EFC4F9081905243
:1013E00097FD9195440F551FFA01E95EFC4F20814E
:1013F000231B330B290F311D97FD3A95620F08957A
:10140000E42FF0E0EE0FFF1FE85EFC4F6081621BEF
:101410000895E42FF0E0EE0FFF1FE95EFC4F6081BE
:10142000621B0895622F0895E42FF0E0EE0FFF1F76
:10143000E95EFC4F408134EE439F412D1124E82F9B
:10144000F0E050E0445E5F4FDA01A21BB1099D015C
:10145000B7FF03C031952195310993E0220F331F67
:101460009A95E1F7AF01421B530B9A0157FD20E01B
:10147000582F259F212D1124822F0895E42FF0E06D
:10148000EE0FFF1FE95EFC4F408134EE439F412D7C
:101490001124E72FF0E050E0445E5F4FDA01A21B19
:1014A000B1099D01B7FF03C031952195310993E042
:1014B000220F331F9A95E1F7AF01421B530B9A019C
:1014C00057FD20E0279F212D1124722F0895FC0144
:1014D0009B01009729F480E077FF2BC080E80895F6
:1014E000AC0197FF04C044275527481B590BB9018D
:1014F000640F751F37FD10C0241B350BC901A5E013
:10150000880F991FAA95E1F70E944B2F80E2861B56
:10151000F7FF0FC081950895CB0165E0880F991FF3
:101520006A95E1F7BA01621B730B0E944B2F80E6AC
:10153000EECF0895EF920F93CF93DF93D72FC82F5D
:10154000C9010E19BA010E94670A602F681B7D2F1E
:101550008C2FDF91CF910F91EF9008950F93CF9340
:10156000DF93D72FC82FC901BA010E94670A682FDD
:10157000600F7D2F8C2FDF91CF910F910895EF9207
:101580000F931F93CF93DF93D62FC72F182FC90127
:101590000E19010FBA010E94670A081B202F219F14
:1015A000212D1124822F6D2F7C2FDF91CF911F9140
:1015B0000F91EF900895EF920F931F93CF93DF93C6
:1015C000D62F172FC82FC9010E19070FBA010E9475
:1015D000670A702F781B719F712D11246D2F8C2F2E
:1015E000DF91CF911F910F91EF9008950F931F936B
:1015F000CF93DF93D62FC72F182FC901212F201B80
:10160000022FBA010E94670A982F990F990F891B20
:10161000800F282F219F212D1124822F6D2F7C2FA9
:10162000DF91CF911F910F9108950F931F93CF9347
:10163000DF93D62F172FC82FC901272F201B022F6A
:10164000BA010E94670A982F990F990F782F791B7A
:10165000700F719F712D11246D2F8C2FDF91CF9101
:101660001F910F910895E82F86FDE0952E2F2F7082
:1016700086FD2F5FE695E695E695E670F0E0E55489
:10168000FE4F9181929F902D212D112492959F7054
:101690002295207F922B2081920F87FD919580E8E3
:1016A000890F0895AC018230910508F408959FEFE9
:1016B000413E8EE1580740F49A0195E03695279512
:1016C0009A95E1F798E0920F61E0E62FE90FFF2786
:1016D000FF1F9F0135952795822F229FF001239FA1
:1016E000F00DF00D11244E175F0738F49FEF920FA5
:1016F000961758F78FEF860F08952F3FE9F361E0B3
:10170000620FF6CF0F93CF93DF93D72FC82F47FDEC
:10171000419588E390E0841B910947FD9395889F4C
:10172000B001899F700D700D1124229FC001239F6D
:10173000900D900D1124860F971F0E94520B982F29
:10174000990F890F682F600F7D2F8C2FDF91CF911C
:101750000F91089530E020E0869F212D969F200D67
:10176000311D1124C9010895AF92BF92CF92DF922B
:10177000FF920F931F93CF93DF93362F472FE82FBE
:10178000F0E0EA5AFC4F71110FC0E4918E2F2E2F1A
:101790006E2F722FDF91CF911F910F91FF90DF90ED
:1017A000CF90BF90AF900895C72FD0E02491F22E34
:1017B000022F10E056E0659FC0011124EFEFF0E02A
:1017C000BF010E94372F832F90E0880F991F35E5C6
:1017D000369FD001379FB00D11248A1B9B0B982F89
:1017E000990F980F6F01CC1ADD0AC09ED001C19EDF
:1017F000B00DD09EB00D11248B2F499FA001112454
:10180000452F55276F01C41AD50AC09EA001C19E5D
:10181000500DD09E500D11245F01A91AB108AC9E45
:101820006001AD9ED00CBC9ED00C1124CD2CDD24CB
:10183000EC19FD09E09FE001E19FD00DF09FD00D74
:101840001124ED2F62307105A1F050F4611571057E
:1018500009F49ECF6130710581F0EB2F852F98CF71
:101860006430710569F080F06630710509F490CF3D
:10187000F4CFE22F2B2F8D2F8BCFE22F252F88CF68
:10188000EB2F822F2D2F84CF2B2F8F2DE52F80CF65
:101890009F92AF92BF92CF92DF92EF92FF920F93FF
:1018A0001F93CF93DF936C018091B401C82FCC0FAD
:1018B000CC0FC80F15E01C0FB12E113310F030E320
:1018C000B32E609142066695669580913A06909196
:1018D0003B060E94AA0BF82E80E48F0D0E94330B6A
:1018E00090E8A92EA80E8F2D0E94330B20E8922E8F
:1018F000980ED0E0CB1580F081E0103308F080E046
:10190000DF91CF911F910F91FF90EF90DF90CF90DB
:10191000BF90AF909F900895FE01E958FC4F8081E1
:101920009091B5018923A1F060913F067091400626
:1019300080914106EF2C0C2F292D4A2DF601099597
:101940000E94B40B462F282F672FCE010E94450915
:101950002196D0CF7F928F929F92AF92BF92CF92DB
:10196000DF92EF92FF920F931F93CF93DF935C016F
:101970008091B401C82FCC0FCC0FC80F15E01C0FFD
:10198000F12E113310F030E3F32E6091420666958C
:1019900080913A0690913B060E94AA0B782ED0E0E7
:1019A000CF1590F081E0103308F080E0DF91CF9107
:1019B0001F910F91FF90EF90DF90CF90BF90AF906D
:1019C0009F908F907F900895FE01E958FC4F808191
:1019D0009091B5018923C9F1CE01880F991F8D53CC
:1019E0009D4FFC01EC5AFF4F2081422F4057550B71
:1019F0006A018B5A9F4FFC018081282F2052330BA4
:101A00004901449F9001459F300D300D1124889C61
:101A1000C001899C900D900D1124820F931F0E948C
:101A2000520B082F60913F0670914006809141064D
:101A3000E72C9401A601F50109950E94B40B462FED
:101A4000282F672FCE010E9445092196A9CFCF925A
:101A5000DF92EF92FF920F931F93CF93DF937C015E
:101A60008091B401C82FCC0FCC0FC80F15E01C0F0C
:101A7000D12E113310F030E3D32E609142066695DB
:101A800080913A0690913B060E94AA0BC82ED0E0A6
:101A9000CD1568F081E0103308F080E0DF91CF9140
:101AA0001F910F91FF90EF90DF90CF900895FE016E
:101AB000E958FC4F80819091B501892311F1CE0145
:101AC000880F991F8D539D4FFC01EB5AFF4F2081CA
:101AD0002052330B8C5A9F4FFC0140814057550BCD
:101AE00060913F0670914006809141060C2DF701F0
:101AF00009950E94B40B462F282F672FCE010E9414
:101B000045092196C5CFDF92EF92FF920F931F9365
:101B1000CF93DF937C018091B401C82FCC0FCC0F01
:101B2000C80F15E01C0F012F113308F000E360917E
:101B300042066695669580913A0690913B060E9412
:101B4000AA0BD82ED0E0C01760F081E0103308F067
:101B500080E0DF91CF911F910F91FF90EF90DF9088
:101B60000895FE01E958FC4F80819091B5018923C9
:101B700091F060913F0670914006809141062D2DB5
:101B80004C2FF70109950E94B40B462F282F672F81
:101B9000CE010E9445092196D6CF9091D90592FF9A
:101BA00006C0282F28712830F9F4877F846093FFBE
:101BB00006C0282F28712831F1F4877E8461209196
:101BC000DA0520FF06C0382F38713830D9F4877F06
:101BD000816021FF06C0282F28712831D1F4877E2B
:101BE000816194FD877E0895282F24712430F9F6B1
:101BF0008B7F8860DCCF282F2471243101F78B7E06
:101C00008861DDCF382F3171313019F78E7F8860D0
:101C1000E0CF282F2171213121F78E7E8861E1CF1D
:101C2000CF93DF93972F70E026E0929F600D711D98
:101C30001124FB0134E5839FE00DF11D1124EE0F0B
:101C4000FF1FEA5AFB4FC591D491CE01C238D1058E
:101C5000B9F1E8F5C133D10509F499C050F5C9329D
:101C6000D10509F48DC0CA32D10509F497C0C11558
:101C700021E5D20708F0BFC0C11530E5D30708F051
:101C800016C1C83ED10508F09DC0C03ED10568F51B
:101C9000C83AD10508F089C0C53AD10508F0FFC09F
:101CA000C130D10511F1209709F443C02497E8F41D
:101CB00040C0C533D10509F45CC0C933D105B9F6BC
:101CC0002091D905237089F080EE90E00EC0C33ECC
:101CD000D10591F168F4C03ED105F9F0C23ED105BD
:101CE00031F62091D90522FD20C0DF91CF910895D2
:101CF000C63ED10561F1C73ED10581F1C43ED10593
:101D000009F0B5CF2091DA0521FFEFCF8091D905F9
:101D100084FD0FC087EE90E0E8CF2091D90520FD2B
:101D200012C13091DA0530FFE0CF83EE90E024FF5E
:101D3000DCCF90E080E0D9CF2091D90522FD06C10B
:101D40003091DA0530FDC0CF24FFCFCFF2CF209104
:101D5000D90523FFCACF24FDECCFDCCF2091D905D4
:101D600023FDF7C03091DA0531FFEECF84EE90E02D
:101D7000BCCF2091D90525FFB8CF89E290E0B5CF3F
:101D80002091D90525FFB1CF85E390E0AECF20911A
:101D9000D90526FFAACF8AE290E0A7CF2091D905E6
:101DA00026FFA3CF81E390E0A0CFCF3BD10508F67B
:101DB000C85AD0E0CC0FDD1FCA57DD4F888199810A
:101DC000946493CFC11520E2D20760F4C11531E0CD
:101DD000D30708F08ACFCE019065C03FD10508F047
:101DE00084CFA7CFC11580E4D80708F4A2CFCE01D5
:101DF0009F70906A7ACFC11595E5D90710F5C11586
:101E000024E5D20708F088C0C11533E5D30708F0F0
:101E10006FC0C11582E5D80708F465C09E01237024
:101E2000332781E090E002C0880F991F2A95E2F7DE
:101E3000C695C69520E2C29FE00111248C2B9D2BF4
:101E400050C0C11599E5D907A0F4C11528E5D207FE
:101E500008F067C0C11536E5D30708F06ACF8C2FAC
:101E60000E94CD0D90E0982F882788279F7190625F
:101E70003CCFC1158AE5D80708F458C0CE0190566A
:101E80008115904208F055CF8D2F8F710E94CD0D96
:101E900090E0982F882788279F718C2BE8CFC55A10
:101EA000D0E0CD57DD4F888190E090641ECF9E0139
:101EB000E4E036952795EA95E1F723708C2F869517
:101EC0008695837030E2839FC0011124922BC370EA
:101ED00021E030E002C0220F331FCA95E2F7822BC7
:101EE000932B9C6802CF9C2F8827816F906AFDCE30
:101EF0009E012370332781E090E002C0880F991F74
:101F00002A95E2F7C695C69530E2C39FE0011124F9
:101F10008C2B9D2B9A68E9CE9C2F8827846F906A22
:101F2000E4CE9C2F8827806F906ADFCE8C2F8F7035
:101F30000E94CD0D34E0D695C7953A95E1F7CF7064
:101F40009C2F9069D2CE89E390E0CFCE82EE90E0D4
:101F5000CCCE86EE90E0C9CEBF92CF92DF92EF92C8
:101F6000FF920F931F93CF93DF938C01C090D50501
:101F7000D090D605E090D705F090D8058091B805AF
:101F80009091B905A091BA05B091BB05C82AD92A8C
:101F9000EA2AFB2ACFE1D0E0BC2ED701C6010C2EE5
:101FA00004C0B695A795979587950A94D2F780FDBA
:101FB0000EC0219788F7B12C8B2DDF91CF911F9107
:101FC0000F91FF90EF90DF90CF90BF900895B801F0
:101FD0008C2F0E94100E019761F3EECFCF93DF9309
:101FE000EC010E94AC0FBE01DF91CF910C94100E5A
:101FF0000E94EE0F292F2F7092959F7092509E3065
:1020000078F4E92FF0E0EB5BFC4C0C945F2F803F01
:1020100019F020F4883E20F481E00895843FE1F334
:1020200080E00895883EC0F3813FD1F7F5CF822F3D
:1020300086958695869508959C019A9581159F4170
:1020400030F4832F817031FD8260FB010994089583
:10205000FC018081813041F49185911114C09285F9
:10206000992389F082E00895823041F481858111BD
:1020700007C08285811106C083E0089586E0089537
:1020800085E0089584E008959F92AF92BF92CF9229
:10209000DF92EF92FF920F931F93CF93DF9320E98C
:1020A000289FE001299FD00D1124CA55DE4F10E072
:1020B00000E0FE0164913196749131968491962FDF
:1020C000972B982BC1F420E040E060E0C8010E940B
:1020D00045090F5F1F4F23960033110551F7DF911C
:1020E000CF911F910F91FF90EF90DF90CF90BF9015
:1020F000AF909F9008950E94B40B962EB72EA82EF5
:102100006091410670E090E080E00E94483220E05B
:1021100030E04FE753E40E94A7316B017C016A2D48
:1021200070E090E080E00E944A32A70196010E9490
:10213000D6320E941932A62E692D70E090E080E020
:102140000E944A32A70196010E94D6320E9419329B
:10215000962E6B2D70E090E080E00E944A32A7013D
:1021600096010E94D6320E9419322A2D492DAECFF7
:1021700027982F98089526982E98089525982D9899
:10218000089556985E980895279A2F9A0895269A4A
:102190002E9A0895259A2D9A0895CF92DF92EF9264
:1021A000FF92CF936B017C010E942307C82F0E94EE
:1021B000C1100E94BE100E94BB100E94B810C150F6
:1021C000C73040F4EC2FF0E0ED5AFC4C0C945F2F3C
:1021D0000E94CA10C701B601CF91FF90EF90DF9027
:1021E000CF9008950E94CA100E94C710F3CF0E949A
:1021F000CA100E94C410EECF0E94CA100E94C710DD
:10220000F8CF209828982198299822982A982398DE
:102210002B9852985A9853985B983E9846980895F0
:102220008098889A8198899A84988C9A85988D9AB2
:1022300086988E9A87988F9A0895CF93DF9300D0CF
:102240000F92CDB7DEB790912D06943019F58983A2
:102250007B836A8383E08093E9008FEF9091E800AD
:10226000815095FD06C095ED9A95F1F7000081111A
:10227000F5CF8091E80085FF0DC050E040E063E0BD
:1022800070E0CE0101960E9449048091E8008E77AB
:102290008093E8000F900F900F90DF91CF910895F9
:1022A000BC0184E00C941D11BC0183E00C941D1151
:1022B0009C0182E08093E9009FEF8091E8009150BB
:1022C00085FD06C085ED8A95F1F700009111F5CFE7
:1022D0008091E80085FF0CC050E040E065E070E0D0
:1022E000C9010E9449048091E8008E778093E8003C
:1022F0000895CF93DF93EC018091B3018823B1F16E
:102300008091D90587FF32C060E283E08093E900C5
:102310008FEF9091E800815095FD06C095ED9A955C
:10232000F1F700008111F5CF8091E80085FF1BC017
:102330008091B30170E050E040E0811104C050E0B2
:1023400040E068E070E0CE010E9449048091E8001E
:102350008E778093E80080E2FE01ABE0B6E001906A
:102360000D928A95E1F7DF91CF91089568E081E0C1
:10237000CDCFEF92FF920F931F93CF93DF930E94E5
:10238000C1100E94BE100E94BB100E94B81088E8C5
:10239000E82EF12C8FEF90E0F701918380830AE81B
:1023A00010E0F80191838083CCE8D0E099838883A2
:1023B0000E94CA10FFEF20E782E0F15020408040E9
:1023C000E1F700C000000E94C7109FEFE0E7F2E0D5
:1023D0009150E040F040E1F700C000000E94C410BE
:1023E0002FEF80E792E0215080409040E1F700C05D
:1023F00000000E94BE10EFEFF0E722E0E150F04055
:102400002040E1F700C000000E94BB108FEF90E772
:10241000E2E081509040E040E1F700C000000E94FF
:10242000B8108091C3058770FFEF8F9FC001112402
:1024300095958795959587959927F7019183808341
:10244000F80191838083998388830E94C1100E9440
:10245000BE100E94BB10DF91CF911F910F91FF9092
:10246000EF900C94B810CF9384E090E00E94FC3081
:10247000C82F81E290E00E94FC30982F8C2FCF91E2
:1024800008956FEE7EEF90E080E00E943E3160E0C4
:1024900082E090E00E94203160E083E090E00E94C2
:1024A00020311092B8051092B9051092BA05109219
:1024B000BB0560E084E090E00E94203160E081E2B2
:1024C00090E00E94203160E085E090E00E942031A1
:1024D00060E086E090E00E9420316FEF87E090E0BE
:1024E0000E94203140E050E0BA0188E090E00E9474
:1024F000323160E08DE090E00E94203140E050E019
:10250000BA0188E190E00E94323160E087E190E01A
:102510000E94203140E050E0BA018CE190E00E943E
:10252000323160E080E290E00E94203140E050E0F3
:10253000BA0188E190E00E9432311092C3051092F6
:10254000C4051092C5051092C60584E08061809391
:10255000C3054091C3055091C4056091C5057091B4
:10256000C6058FE090E00E94323140E050E0BA01B1
:1025700083E190E00C9432310F931F93CF93DF935C
:10258000082F000FEB0114E21093E103E2EEF3E0F9
:10259000DE018D91819383E0E23FF807D1F724E6D5
:1025A00030E041E150E061EE73E0802F0E940C2F9B
:1025B000105F6096143B41F7DF91CF911F910F910F
:1025C00008958091F503882329F067EF73E084E78D
:1025D0000E94BC121092F5038091F603882329F023
:1025E00067E874E087E70E94BC121092F603089532
:1025F000E1EEF3E06083418324E630E042E050E026
:10260000BF01880F0C940C2FEF92FF920F931F9332
:10261000CF93DF93E82E062F10E0055C1A4FF801E8
:102620008081882381F0F2E16F9FE0011124C95E6F
:10263000DA4FF12C49916F2D8E2D0E94F812F394F0
:1026400082E1F812F7CFF8011082DF91CF911F914C
:102650000F91FF90EF900895CF93DF93C82F4BE039
:102660006DEF0E94F81240E06AE08C2F0E94F81291
:102670008FE39CE90197F1F700C0000040E060E0C3
:102680008C2F0E94F81240E061E08C2F0E94F8121B
:1026900040E066E08C2F0E94F81240E06DEF8C2F36
:1026A0000E94F812D0E040E06D2F8C2F0E94F812AB
:1026B000DF5FD231C1F740E06D2F8C2F0E94F812FE
:1026C000DF5FD432C1F740E06D2F8C2F0E94F812EB
:1026D000DF5FD43BC1F74BE06DEF8C2F0E94F81207
:1026E00041E06AE08C2F0E94F81240E06DEF8C2FE1
:1026F000DF91CF910C94F8126F927F928F929F92FC
:10270000AF92BF92CF92DF92EF92FF920F931F93FF
:10271000CF93DF930E94572E84E70E942C1387E704
:102720000E942C1363ECE62E61E0F62ED12CC12C16
:1027300072E1772EE8E08E2E912CAA24A394B12C7E
:1027400066246394F701418150E0CA0184970281B5
:102750000452110BC381C452DD0BF601EE0FFF1FB3
:10276000EE0FFF1FED53FE4F2081237030E0FC0180
:1027700097FD379643E0F595E7954A95E1F7729E08
:10278000A001739E500D1124495E5A4FE40FF52F9E
:10279000F11DB4010E944B2FA50101C0440F8A9581
:1027A000EAF78081842B8083F80117FD379693E048
:1027B000F595E7959A95E1F7729EC001739E900D8D
:1027C0001124895E9A4FE80FF92FF11DC801B40159
:1027D0000E944B2FA50101C0440F8A95EAF7808122
:1027E000842B8083FE01D7FD379683E0F595E7952E
:1027F0008A95E1F7729EC001739E900D1124895E47
:102800009A4FE80FF92FF11DCE01B4010E944B2F12
:10281000A50101C0440F8A95EAF78081842B80834B
:10282000255C3A4FF9016082FFEFCF1ADF0A84E09E
:10283000E80EF11CE0E3CE16D10409F083CF60E08E
:1028400084E70E94041361E087E7DF91CF911F9135
:102850000F91FF90EF90DF90CF90BF90AF909F903F
:102860008F907F906F900C9404131F93CF93DF93FE
:10287000EC01FC01E958FC4F80816823A1F00E9423
:10288000B12F182F0E94B12F612F782F8091410610
:102890000E94B40B462F282F672FCE01DF91CF91D6
:1028A0001F910C944509DF91CF911F910895DF92FC
:1028B000EF92FF920F931F93CF93DF938C01FC0154
:1028C000E958FC4F8081682381F1D0904006D09177
:1028D0004106C0913F06EC2EF12C0E94B12F282F0B
:1028E000C7018C549F4F68E671E00E944B2F8E19F0
:1028F0009F0997FD039695958795959587952370E4
:102900006C2F289F600D11247D2D8D2F0E94B40BFC
:10291000462F282F672FC801DF91CF911F910F916C
:10292000FF90EF90DF900C944509DF91CF911F91BC
:102930000F91FF90EF90DF90089545E050E06CE13B
:1029400070E08EE396E00C94103190913E06937007
:1029500089F0811107C0946090933E061092B701F0
:102960000C949D14893110F09066F6CF880F880F73
:10297000982BF2CF089580913E06869586958150DA
:1029800009F488E10C94A51480913E0686958695FD
:102990008F5F893108F081E00C94A51490913E0678
:1029A000937041F080933F06609340064093410648
:1029B0000C949D140895EEE3F6E0438120E1421B60
:1029C00008F440E08181628190E00C94CE14EEE343
:1029D000F6E0438120E1420F08F44FEF81816281EC
:1029E00090E00C94CE14EEE3F6E0628120E1621BED
:1029F00008F460E08181438190E00C94CE14EEE312
:102A0000F6E0628120E1620F08F46FEF818143817B
:102A100090E00C94CE14EEE3F6E081814381628174
:102A20008850990B0C94CE14EEE3F6E0818190E08F
:102A30004381628108960C94CE14EEE3F6E0248183
:102A400030E1230F08F42FEF24830C949D14EEE360
:102A5000F6E0248130E1231B08F420E024830C9469
:102A60009D14EEE3F6E085E380838091B8019091B8
:102A7000B901A091BA0181839283A3838CE38483FB
:102A80000C949D140E947C1390E080E00E940A3117
:102A90008F3E9E4F21F00E9441120E94311545E069
:102AA00050E06CE170E08EE396E00E94EC308091A3
:102AB0003E068C7F11F40C943115089580E290E06D
:102AC0009093A8018093A7018091C80381110EC043
:102AD0000E94572E81E08093C8032FEF83ED90E38F
:102AE000215080409040E1F700C0000064E670E0B3
:102AF00080E40E945D2E9093A8018093A701892B0A
:102B000009F04EC064E670E080E00E94B92E909318
:102B1000A8018093A701892B09F042C064E670E008
:102B200080E00E94B92E9093A8018093A701892B81
:102B3000B9F564E670E08FE30E94B92E9093A80186
:102B40008093A701892B61F50E94332F64E670E022
:102B500080E40E945D2E9093A8018093A701892BA9
:102B6000F9F464E670E08CE00E94B92E9093A8011D
:102B70008093A701892BA1F464E670E080E00E94B5
:102B8000B92E9093A8018093A701892B49F464E69C
:102B900070E08FE30E94B92E9093A8018093A70163
:102BA0000E94332F8091A7010895CF93C82F8730BB
:102BB00070F58091A7019091A801892B89F564E6B1
:102BC00070E080E40E945D2E9093A8018093A7019D
:102BD000892BD1F464E670E082E10E94B92E9093D3
:102BE000A8018093A701892B79F481E090E001C0CE
:102BF000880FCA95EAF764E670E080950E94B92EC6
:102C00009093A8018093A701CF910C94332F8A3021
:102C1000B9F040F4883071F0893079F0209A289822
:102C2000CF9108958C3091F070F08D30B9F73E9AC5
:102C30004698F6CF219A2998F3CF229A2A98F0CF76
:102C4000239A2B98EDCF529A5A98EACF539A5B98D1
:102C5000E7CFCF93873050F58091A7019091A801DD
:102C6000C0E0892B71F464E670E081E40E945D2E7F
:102C70009093A8018093A701892B31F0C0E00E94B6
:102C8000332F8C2FCF91089584E690E00E94E82E98
:102C900097FF05C09093A8018093A701EFCFC82F9D
:102CA000C0951092A8011092A701E9CFCFB18FB1C2
:102CB000869586958C73C3708C2BC82FC095E1CFF9
:102CC0001F920F920FB60F9211242F933F934F93A1
:102CD0005F936F937F938F939F93AF93BF93EF9384
:102CE000FF938091E10082FF09C08091E20082FFA2
:102CF00005C08091E1008B7F8093E1008091DA0034
:102D000080FF24C08091D80080FF20C08091DA002D
:102D10008E7F8093DA008091D90080FF9BC080E194
:102D200089BD82E189BD09B400FEFDCF81E08093B9
:102D30002D0680910806811109C00E94F9030E94A6
:102D4000C4048091E20084608093E2008091E100FD
:102D500080FF17C08091E20080FF13C08091E200E5
:102D60008E7F8093E2008091E20080618093E20098
:102D70008091D80080628093D80019BC85E0809350
:102D80002D068091E10084FF29C08091E20084FF3C
:102D900025C080E189BD82E189BD89B5982F9170F8
:102DA00080FFFBCF8091D8008F7D8093D8008091E9
:102DB000E1008F7E8093E1008091E2008F7E80931E
:102DC000E2008091E20081608093E20080912E0613
:102DD000882309F445C084E080932D068091E100AA
:102DE00083FF27C08091E20083FF23C08091E10030
:102DF000877F8093E10082E080932D0610922E065B
:102E00008091E1008E7F8093E1008091E2008E7FCF
:102E10008093E2008091E20080618093E20042E0D2
:102E200060E080E00E9492048091F00088608093CE
:102E3000F000FF91EF91BF91AF919F918F917F91A2
:102E40006F915F914F913F912F910F900FBE0F9017
:102E50001F90189519BC10922D061092080676CF77
:102E60008091E30087FD93E090932D06B7CF78948F
:102E70001F921FB61F9211248F939F93AF93BF93FE
:102E80008091BC059091BD05A091BE05B091BF0594
:102E90000196A11DB11D8093BC059093BD05A09323
:102EA000BE05B093BF05BF91AF919F918F911F90C9
:102EB0001FBE1F9018952FB7F8948091BC05909174
:102EC000BD05A091BE05B091BF052FBF08950E941A
:102ED0005B179C019091F4058091F505982B21F0EA
:102EE0003093F2052093F1059091F6058091F70556
:102EF000982B21F03093EF052093EE05E091DB0550
:102F0000F091DC05309731F00480F581E02D83EFFE
:102F100095E0099408951092B5051092B4050E94A9
:102F20007D0785E0E3EFF5E0DF011D928A95E9F783
:102F30001092F0051092ED051092C0050E946717DF
:102F400090E080E00E945F0890E080E00C944908E7
:102F50000E94CD106093D5057093D6058093D70558
:102F60009093D8050C948B170F931F9341E050E07A
:102F700060E070E004C0440F551F661F771F8A95FC
:102F8000D2F7CB01BA01609570958095909500912C
:102F9000D5051091D6052091D7053091D80560232D
:102FA0007123822393231F910F910C94A817909162
:102FB000B305809589238093B305282F277071F47A
:102FC000282F082E000C330B9217130639F0859525
:102FD000859585950E94B4171092B30508950F93B7
:102FE0001F9341E050E060E070E004C0440F551FC3
:102FF000661F771F8A95D2F78091D5059091D605E7
:10300000A091D705B091D8058A019B01082B192BF7
:103010002A2B3B2BC901B8011F910F910C94A817C3
:103020006093B8057093B9058093BA059093BB057A
:103030000C948B171092B6058091B301EAEAF3E085
:10304000882359F08091D90587FF07C08EE1DF0101
:103050001D928A95E9F70C948B1786E0F8CF1F93A1
:10306000CF93DF93CDB7DEB7AA970FB6F894DEBF44
:103070000FBECDBF8FE296E02091F100DC012D93D1
:10308000CD01B6E087339B07B9F7809130068330D6
:1030900009F471C0B8F4813009F448C0823009F4F1
:1030A000B2C08091E80083FF83C280912F06909187
:1030B00030069A3008F07CC2E92FF0E0E65AFC4C6A
:1030C0000C945F2F8A3009F48DC08B3009F470C0E6
:1030D000893039F780912F06813219F780913306B4
:1030E00090913406009711F00297D9F68091E8008C
:1030F000877F8093E8008091E80082FF37C090913D
:10310000F3008091F200029729F48091F1008B7F07
:10311000813021F48091F10080930A068091E800CB
:103120008B778093E8000E947304BBCF80912F06B9
:10313000813A09F0B6CF8091E800877F8093E8005C
:103140008091330690913406892B61F460E28BE024
:1031500096E070E00E9425058091E8008B778093CF
:10316000E8009FCF60E090E080E0F3CF80912D06F3
:103170008111C1CF96CF80912F06813A09F091CF6E
:103180008091330690913406892B09F08ACF809183
:10319000E800877F8093E8008091E80080FFFCCF03
:1031A0008091B3018093F1008091E8008E77B9CFD0
:1031B00080912F06813209F074CF8091330690916F
:1031C0003406892B09F06DCF8091E800877F8093CA
:1031D000E8000E947304809131068093B3010E943D
:1031E0001A185FCF80912F06813209F05ACF809153
:1031F000E800877F8093E8000E9473048091320684
:10320000809309064ECF80912F06813A09F049CF6D
:103210008091E800877F8093E8008091E80080FF3C
:10322000FCCF80910906BECF803899F0823809F032
:10323000BFC1809133068F70873008F0B9C1809389
:10324000E9008091EB0085FB882780F91092E90066
:1032500006C080912B0690912C069111826090916E
:10326000E800977F9093E8008093F1001092F100BE
:103270008091E8008E7798C1882309F486C1823056
:1032800009F096C180913106811189C18091330680
:103290008F702FEF280F263008F08AC18093E90045
:1032A0002091EB0020FF7BC1933031F48091EB0043
:1032B00080628093EB0073C19091EB0090619093DA
:1032C000EB0021E030E001C0220F8A95EAF720935D
:1032D000EA001092EA008091EB008860EACF811149
:1032E00067C1109131061F778091E3008078812BB0
:1032F0008093E3008091E800877F8093E8000E943C
:1033000073048091E80080FFFCCF8091E300806827
:103310008093E30082E0111183E080932D0648C181
:103320008058823008F044C1209131063091320635
:103330002C3DE3E03E07A1F583E08A838AE289839E
:103340004FB7F894DE01139620E03EE051E2E32F00
:10335000F0E050935700E49120FF03C0E295EF7036
:103360003F5FEF708E2F90E0EA30C0F0C7968D93EC
:103370009D932F5F243159F74FBF8091E800877FDD
:103380008093E8006AE270E0CE0101960E94250574
:103390008091E8008B778093E8000AC1C096E7CF60
:1033A0008091330690913406432F552743305105C1
:1033B00009F44AC078F54130510509F47AC084E532
:1033C00090E0E6EFF6E04230510509F0F1C02091BF
:1033D000E800277F2093E8002091350630913606DB
:1033E0008217930708F49C0140E02115310509F08C
:1033F00065C0411163C08091E80082FDC9CF809112
:103400002D06882329F2853019F28091E80083FF88
:10341000F2CFBECF4132510509F43CC042325105D2
:1034200009F0C6C08330910508F0C2C0FC01EE0F60
:10343000FF1FE954FD4F0190F081E02D8C549D4F0A
:10344000DC018C9190E01AC0332721303105D1F096
:103450002115310561F02230310509F0A9C0ECE5F4
:10346000F7E0E4918E2F90E0ECE5F7E007C0E0EBA9
:10347000F7E0E4918E2F90E0E0EBF7E0009709F49D
:1034800097C0A5CFEEE7F7E0E4918E2F90E0EEE74E
:10349000F7E0F4CF8330910508F08AC0880F991FB8
:1034A000FC01E354FD4F0190F081E02D89E090E0B4
:1034B0008ECF82E190E0EAE4F7E089CF80912D069B
:1034C000882309F465CF853009F462CF8091E80044
:1034D00083FD5ECF8091E80082FD8DCF8091E80072
:1034E00080FF83CF9091F3008091F2002115310588
:1034F00019F08830910550F041E0089709F040E05C
:103500008091E8008E778093E8006FCF44914093DC
:10351000F1003196215031090196E8CF803809F049
:1035200047C08091E800877F8093E80080912E0655
:103530008093F1009DCE81113BC010913106123075
:10354000B8F58091E800877F8093E80010932E06FD
:103550000E947304112311F084E005C08091E30000
:1035600087FDFACF81E080932D0642E061EC81E097
:103570000E94920442E061EC82E00E94920442E2E6
:1035800061EC83E00E94920413C080913106813087
:1035900079F481E0933009F080E080932C0610925A
:1035A000E9008091E800877F8093E8000E9473041F
:1035B0008091E80083FF0AC08091E800877F8093B4
:1035C000E8008091EB0080628093EB00AA960FB632
:1035D000F894DEBF0FBECDBFDF91CF911F9108954C
:1035E0001F920F920FB60F9211242F933F934F9378
:1035F0005F936F937F938F939F93AF93BF93CF937B
:10360000DF93EF93FF93D091E900DF708091EC009E
:10361000C82FC17080FDC0E81092E9008091F000D1
:10362000877F8093F00078940E942F181092E90011
:103630008091F00088608093F000CD2BCF70C09314
:10364000E900FF91EF91DF91CF91BF91AF919F91F1
:103650008F917F916F915F914F913F912F910F903B
:103660000FBE0F901F901895882379F19CEF980F4B
:10367000913A38F4682F88EA93E00E94C4060C94CB
:103680007D0790E2980F983050F4877091E001C068
:10369000990F8A95EAF7892F0E947607F0CF9BE56C
:1036A000980F933020F490E080E00C945F0898E548
:1036B000980F973120F490E080E00C944908803F07
:1036C00020F00E9486050C9467170895CF93DF932E
:1036D000EC010E94341BCE01805E910968E378E022
:1036E000089710F063E278E0CE01DF91CF910C945F
:1036F0001C108FE39CE90197F1F700C00000809156
:10370000D603833059F0853011F0813021F48DE4F7
:1037100090E00E94661B1092D60308958DE492E01B
:10372000F8CF8FE39CE90197F1F700C0000080918A
:10373000D403833059F0853011F0813021F48AE4CC
:1037400090E00E94661B1092D40308958AE492E0F0
:10375000F8CF8FE39CE90197F1F700C0000080915A
:10376000D203833059F0853011F0813021F48CE69A
:1037700090E00E94661B1092D20308958CE691E0BF
:10378000F8CF8FE39CE90197F1F700C0000080912A
:10379000D003833059F0853011F0813021F486E276
:1037A00092E00E94661B1092D003089587E292E097
:1037B000F8CF8FE39CE90197F1F700C000008091FA
:1037C000CE03833059F0853011F0813021F48FE23F
:1037D00092E00E94661B1092CE03089580E392E06F
:1037E000F8CF8FE39CE90197F1F700C000008091CA
:1037F000CC03833059F0853011F0813021F48AE117
:1038000090E00E94661B1092CC03089582E592E03E
:10381000F8CF8FE39CE90197F1F700C00000809199
:10382000CA03833059F0853011F0813021F485E3EB
:1038300090E00E94661B1092CA03089589E290E00E
:10384000F8CFCF93C82F882309F46EC08CEF8C0F6C
:10385000813AB8F58091B301882311F18091D9059F
:1038600087FF1EC0EC2FE695E695E695F0E0E8555B
:10387000FC4F828190E04C2F477021E030E002C085
:10388000220F331F4A95E2F782239323892B89F075
:103890006C2F88EA93E00E94C4060E947D0709C04D
:1038A000EAEAF3E08191C81799F383E0E03BF80777
:1038B000C9F76C2F88EA93E00E94EE06CF910C9432
:1038C0007D0780E28C0F883068F4C77021E030E01B
:1038D00001C0220FCA95EAF78091B605822B80932A
:1038E000B605ECCFEBE5EC0FE33040F4F0E0ED573C
:1038F000FD4F808190E0CF910C945F08E8E5EC0FDC
:10390000E73150F4F0E0EE0FFF1FEA57FD4F8081E2
:103910009181CF910C944908C03F30F08C2F0E94C8
:103920004D06CF910C946717CF9108950F931F9375
:10393000CF93DF93C62FD42F022FFC0182818823DF
:10394000A1F0609339060E945B179093380680932C
:103950003706C77081E001C0880FCA95EAF7DF918A
:10396000CF911F910F910C943F08809139066813F5
:1039700038C080913706909138060E94B506883C81
:10398000910578F510E21D0FCD17B9F080E28C0F8C
:10399000883040F4C77081E001C0880FCA95EAF70B
:1039A0000E943808183048F481E09D2F977001C0BC
:1039B000880F9A95EAF70E943F08802F0E94211CE9
:1039C000802F0E94341B183098F4D77081E001C01A
:1039D000880FDA95EAF7DF91CF911F910F910C9440
:1039E0003808C77081E001C0880FCA95EAF7F3CFA5
:1039F000DF91CF911F910F910895CF93DF93EC0149
:103A0000805E91096FE378E0089710F06EE278E04D
:103A1000CE010E941C108C2FDF91CF910C94211CA1
:103A2000CF93DF93EC010E94FD1CCE01DF91CF917B
:103A30000C94661BCF93DF93EC018881833061F493
:103A40008DE490E00E94101D8DE490E00E94101D16
:103A50008DE490E00E94101D8881843030F08DE468
:103A600090E0DF91CF910C94101DDF91CF910895DC
:103A7000CF93DF93EC018881833061F48AE490E096
:103A80000E94101D8AE490E00E94101D8AE490E0DC
:103A90000E94101D8881843030F08AE490E0DF912C
:103AA000CF910C94101DDF91CF910895CF93DF93A8
:103AB000EC018881833061F48CE690E00E94101D57
:103AC0008CE690E00E94101D8CE690E00E94101D94
:103AD0008881843030F08CE690E0DF91CF910C94B7
:103AE000101DDF91CF910895CF93DF93EC01888172
:103AF000833061F486E292E00E94101D86E292E03B
:103B00000E94101D86E292E00E94101D8881843080
:103B100030F086E292E0DF91CF910C94101DDF919E
:103B2000CF910895CF93DF93EC018881833061F4C6
:103B30008FE292E00E94101D8FE292E00E94101D21
:103B40008FE292E00E94101D8881843030F08FE275
:103B500092E0DF91CF910C94101DDF91CF910895E9
:103B6000CF93DF93EC018881833061F48AE190E0A8
:103B70000E94101D8AE190E00E94101D8AE190E0F1
:103B80000E94101D8881843030F08AE190E0DF913E
:103B9000CF910C94101DDF91CF910895CF93DF93B7
:103BA000EC018881833061F485E390E00E94101D70
:103BB00085E390E00E94101D85E390E00E94101DB7
:103BC0008881843030F085E390E0DF91CF910C94D0
:103BD000101DDF91CF9108950E9428108093D60385
:103BE000833039F0853049F0813061F48DE490E024
:103BF00002C08DE492E00C94FD1C8DE490E00E94E4
:103C0000101DF4CF08950E9428108093D4038330B0
:103C100039F0853049F0813061F48AE490E002C0E7
:103C20008AE492E00C94FD1C8AE490E00E94101D4E
:103C3000F4CF08950E9428108093D203833039F086
:103C4000853049F0813061F48CE690E002C08CE66A
:103C500091E00C94FD1C8CE690E00E94101DF4CFC6
:103C600008950E9428108093D003833039F0853066
:103C700049F0813061F486E292E002C087E292E08E
:103C80000C94FD1C86E292E00E94101DF4CF089572
:103C90000E9428108093CE03833039F0853049F09C
:103CA000813061F48FE292E002C080E392E00C94F4
:103CB000FD1C8FE292E00E94101DF4CF08950E9437
:103CC00028108093CC03833039F0853049F081305F
:103CD00061F48AE190E002C082E592E00C94FD1C60
:103CE0008AE190E00E94101DF4CF08950E942810F0
:103CF0008093CA03833039F0853049F0813061F414
:103D000085E390E002C089E290E00C94FD1C85E31D
:103D100090E00E94101DF4CF08954F925F926F9231
:103D20007F928F929F92AF92BF92CF92DF92EF924B
:103D3000FF920F931F93CF93DF9300D000D00F9289
:103D4000CDB7DEB77C01DC0113968D919C91149761
:103D5000892B41F01C911196DC90812F8D218F3F92
:103D600009F040C60F900F900F900F900F90DF91C9
:103D7000CF911F910F91FF90EF90DF90CF90BF9068
:103D8000AF909F908F907F906F905F904F9008952D
:103D90000E94AC0F082F682F89819A810E94EB073F
:103DA000E12FF0E0B6E0DB9EE00DF11D112424E5EB
:103DB000029FE00DF11D1124EE0FFF1FEA5AFB4F89
:103DC00005911491D70112968C91811154C00A3239
:103DD000BDE51B0709F48DC00B32EDE51E0709F4A4
:103DE00032C1033CFCE51F0709F055C1D70112960B
:103DF0008C918823E9F09091B5018091C3059F3F94
:103E000009F042C11092B5018F7E8093C30540E056
:103E100060E080E00E9443094091C3055091C405D1
:103E20006091C5057091C6058FE090E00E94323127
:103E30008091B305877009F495CFD70112968C91C4
:103E4000882309F48FCF82E00F900F900F900F908E
:103E50000F90DF91CF911F910F91FF90EF90DF9026
:103E6000CF90BF90AF909F908F907F906F905F901A
:103E70004F900C94D7178091A6018F3F09F4A7CFDC
:103E80006CE0C62E61E0D62EB12CA12C992493941F
:103E90008091A601082E000C990B8A159B050CF445
:103EA00096CFD60116968C9116978823D9F019963D
:103EB0008D919C918017910739F4809141059091E3
:103EC00042058017910771F0F601978614870387E2
:103ED0008189811103C0C6010E948108C60106962E
:103EE0000E94A208FFEFAF1ABF0A26E1C20ED11C42
:103EF000CFCFD70112968C918823C9F18091C30549
:103F000091E0980F9770887F953008F4892B809303
:103F1000C3058091C3058770BFEF8B9FC00111243B
:103F20009595879595958795992790938900809386
:103F3000880090938B0080938A0090938D008093EB
:103F40008C004091C3055091C4056091C5057091E6
:103F5000C6058FE090E00E9432316091D5057091E6
:103F6000D6058091D7059091D8050E94CD10C80143
:103F700097558F3F910509F008F4AEC0043FFCE56A
:103F80001F0709F405C108F094C0093D3CE513077B
:103F900009F4FAC00A3D8CE5180709F405C1083D8B
:103FA0009CE5190709F4ECC0D70112969C9199235E
:103FB00009F42BC5109239060230BCE51B0708F442
:103FC000C9C10631ECE51E0738F098012B5F3C456E
:103FD0002730310508F0BEC10E9433129093DA05F4
:103FE0008093D9050F30FCE51F0709F494C108F050
:103FF00015C108303CE5130709F477C108F0E8C0A3
:1040000004309CE5190709F464C108F0D0C00230FF
:10401000BCE51B0709F459C18091D90582600330C2
:104020001C4509F4E7C06091D9051091DA0584E0D8
:1040300090E00E942031612F81E290E00E942031C7
:104040000E941A18F5CEF7018281882309F48FCFD8
:104050009091C305892F877F93FF88608093C30564
:1040600083FF05C040E060E080E00E94430940918A
:10407000C3055091C4056091C5057091C6058FE0D8
:1040800090E00E94323173CF9FEF9093B501806131
:104090008093C305C1CE0C32BDE51B0709F067CF85
:1040A000F7018281882309F4C3CE81E00E94A51420
:1040B000BFCE063FACE51A0709F472C008F46CC025
:1040C00027E245EE66EE073FECE51E0709F06CCFF0
:1040D000C7010E94961CACCE2091A601022E000CB6
:1040E000330B2817390714F48093A601D7011296D1
:1040F0002C91129736E1389F5001399FB00C112452
:10410000F501E45FFE4F6F01208B12969C91868132
:10411000992349F1128701878F5F86830E945B177D
:10412000D6011E969C938E931D978091B705179686
:104130008C9317978091B5059091B605892B1896A9
:104140008C931897ED91FC911197309739F0549614
:104150006D917C91C5018E5E9E4F0995109342052D
:104160000093410521CF882309F408CF8189882352
:1041700009F404CFC5018E5E9E4F0E94A20814CFA1
:1041800026E241EE61EEA4CF27E245EE65EEA0CF38
:1041900026E241EE60EE9CCF27E245EE64EE98CF3A
:1041A00026E241EE62EE94CF28E241E0EFCF80912B
:1041B000D90580610630FCE51F07E1F08091D90543
:1041C000886007301C45B0F08091D905806212C02C
:1041D0000B303CE5130709F496C078F409309CE5F0
:1041E000190709F486C08091D9058C600A301C45F6
:1041F00009F019CF8093D90516CF8091D9058B7F0F
:104200000D30BCE51B07B1F38091D9058D7F0E30D1
:104210001C4580F38091D905877FECCF0B3FFCE5EF
:104220001F0709F45AC048F502313CE5130709F4A9
:104230007AC060F400319CE5190709F470C08091E0
:10424000D9058F7B01311C45A9F2EDCE0431BCE5C7
:104250001B0709F476C008F46CC005311C4509F051
:10426000E2CE8091D90582FB992790F921E092272F
:1042700090FB82F990FB83F9BDCF0E3F2CE512072E
:1042800009F445C070F40C3F8CE5180751F180919A
:10429000DA058E7F0D3F1C4509F0C5CE8093DA0507
:1042A000C2CE0115ADE51A0709F447C040F101304F
:1042B0001D4509F0B8CE8091DA05982F9095917040
:1042C0008E7F892B90FB81F9E9CF8091D9058160A0
:1042D00091CF8091D90584608DCF8091DA0581607E
:1042E000DDCF8091DA058260D9CF8091D9058064D5
:1042F00081CF0E941A188091D90580687BCF809168
:10430000DA058360CBCF8091D9058E7F73CF809102
:10431000DA058D7FC3CF8091D9058F7E6BCF8091D9
:10432000D9058F7D67CF0E941A188091D9058F77A4
:1043300061CF8091D905837F5DCF8091DA058C7F35
:10434000ADCF0E941A189091D905892F97FB87F954
:10435000805850CF8091B6050631FCE51F0709F063
:1043600062C38A7A91E009F490E09093430569E290
:10437000811165E388EA93E00E94EE060E947D07C2
:1043800057CD80913E0691E0892780933E0610929A
:10439000B7010E949D144CCD4BEB54E164EC74E1E9
:1043A0000E94EC0845CD44EC54E16BEB74E1F8CF8E
:1043B0004BE055E164E175E1F3CF44E155E16BE099
:1043C00075E1EECF43EF54E16FEF74E1E9CF4FEFCA
:1043D00054E163EF74E1E4CF4BED54E167EE74E137
:1043E000DFCF47EE54E16BED74E1DACF47E255E100
:1043F0006DE175E1D5CF4DE155E167E275E1D0CFD3
:1044000085E054CE8DE052CE82E150CE01152CE5F0
:10441000120709F44AC00F3D1C4509F483C0F70197
:1044200000811181992309F480C0C8010E94AC0F5A
:10443000D82E682FC8010E94EB07B8018D2D0E946D
:10444000100E8C01882ED7011596AC901597A2946A
:104450004FE0A4221296DC90D1101092B505809105
:10446000B305877099F0DD2089F0812F807F80343B
:1044700021F080E2800F883048F082E00E94D71758
:104480008091B3058770CC24C3948111C12CB12EC7
:10449000B2943FE0B322BBE0BB1508F47DC0EB2D26
:1044A000F0E0EC59FC4C0C945F2F0E941A188FEF2F
:1044B00094E3ACE081509040A040E1F700C00000E0
:1044C000F89481E08093E00080E28093D80010921D
:1044D000C900EFE1FEE43197F1F700C000001DBA1A
:1044E000109268001CBC10BE1FBA10927A00109285
:1044F0006E0010926F001092710010927200109274
:10450000C9001092BC0014B817B81AB81DB810BA78
:104510001092BC0015B818B81BB81EB811BA0C948C
:10452000003F86CC0E94411283CCC8010E94C20782
:10453000D82E83CFE12FEF70AE2E107F19F0A2940A
:1045400020EFA222DD20C9F0AA2069F080E2800FCE
:10455000883010F081100BC08091B605A82AA09277
:10456000B6050E947D07802F0E94211C15C08091F6
:10457000B505A82AA092B505F4CF802F0E94341B60
:10458000AA2051F0005E083010F0811043C08A2D3F
:104590000E9476070E947D07AB2DA850BB0B149795
:1045A00010F40E947508CC20A9F08091B30580FD1D
:1045B00011C0F70112828595859585950E94EF17A8
:1045C000C7010E948D1E8091B305859585958595BF
:1045D0000E94B41785E0F701DE01119601900D925B
:1045E0008A95E1F789819A810E94C2079A81E981BF
:1045F000F0E026E0929FE00DF11D112434E5839F49
:10460000E00DF11D1124EE0FFF1FEA5AFB4F8591BB
:104610009491A8CBA0948091B505A822A092B5054D
:10462000B9CFF12FFF709F2E107F103219F09294A6
:1046300090EF9922882041F021E0821631F1DD20AF
:1046400079F1AA2041F18FCFDD2091F09091B7054B
:10465000892D892BA11003C00E943F089DCF31E016
:10466000A312FACF981709F497CF8093B70594CF88
:10467000A11006C00E947007892D0E9438088CCFB7
:1046800081E0A81609F488CFF5CFDD2031F091E064
:104690009A1508F481CF892DDFCFA1107DCFECCF03
:1046A000AA2051F3A9E38A1209C0BFEFE7EEF3E0B5
:1046B000B150E040F040E1F700C00000802F0E94C0
:1046C000341B6ACF812F86958695837061F0813087
:1046D00009F062CFC8019370D11002C090E080E071
:1046E0000E94490859CFC8019370D11002C090E0D0
:1046F00080E00E945F0850CF802FDD2029F00E94CB
:104700004D060E94671748CF0E948605FACF812F79
:10471000837009F066C0D1103FCF802F82958695B7
:104720008770880F880F602F6F70462E512C712C68
:10473000612C082E04C0440C551C661C771C0A947E
:10474000D2F740E050E0BA0104FF0FC04FE050E064
:1047500060E070E004C0440F551F661F771F8A9504
:10476000D2F74095509560957095812F86958695E6
:104770008370823019F1D8F40091B8051091B90511
:104780002091BA053091BB05813069F04429552943
:1047900066297729CB01BA016023712382239323F1
:1047A0000E941018F9CE402A512A622A732ACB019E
:1047B000BA016429752986299729F2CF44295529F8
:1047C000662977290091B8051091B9052091BA059D
:1047D0003091BB05CB01BA0160277127822793274F
:1047E000DFCF8695DD2011F0812F8170882309F4B9
:1047F000D3CE802F829586958770880F880F602F83
:104800006F70462E512C712C612C082E04C0440C64
:10481000551C661C771C0A94D2F740E050E0BA01A0
:1048200004FF0FC04FE050E060E070E004C0440FB0
:10483000551F661F771F8A95D2F740955095609552
:104840007095812F869586958370823019F1D8F402
:104850000091D5051091D6052091D7053091D80546
:10486000813069F04429552966297729CB01BA019D
:1048700060237123822393230E94A8178DCE402AA0
:10488000512A622A732ACB01BA0164297529862923
:104890009729F2CF44295529662977290091D50512
:1048A0001091D6052091D7053091D805CB01BA01DA
:1048B0006027712782279327DFCF1F70DD2029F023
:1048C000812F0E94EF17802FC7CE802F0E943808BB
:1048D000812F0E94B41760CE802F22EF821609F438
:1048E0004EC0281578F030EF831619F191EF891634
:1048F00009F43DC0DD2009F465C0A11034CE812F3C
:104900008F713AC0A3EF8A1609F43EC0B4EF8B1240
:10491000F1CFDD2009F44BC01F71812F0E94EF17EA
:10492000F8E01F9FC001112483608093B305812F9D
:1049300023C0DD20B9F0A1102FCE1F7161E070E01F
:1049400080E090E004C0660F771F881F991F1A95BA
:10495000D2F70091D5051091D6052091D705309159
:10496000D805A6CFE1E0EA1508F416CEE6CF812FF0
:104970008F71DD2009F4ADCF0E94EF170DCE812F8E
:104980008F71DD20C9F3A5CF60E070E0CB01DD20A1
:1049900009F472CF1F7161E070E080E090E004C024
:1049A000660F771F881F991F1A95D2F765CF81E090
:1049B0000E94D71721E02A1508F0EECD82E00E9470
:1049C000D717EACDAA2059F0893309F077CE3FEF07
:1049D00087EE93E0315080409040E1F76DCE812F1B
:1049E0008F7177CF85E0F701DE01119601900D926E
:1049F0008A95E1F7D70112962C9189819A8121112C
:104A0000C7C90E94C207082FCBC906311C4509F04F
:104A100006CD8091430569E2811165E388EA93E060
:104A20000E94C406ABCC8272F801E35CFC45E43121
:104A3000F10508F0EBCCE059FC4C0C945F2F1F9370
:104A4000CF93DF9380914905807FA9F4809146053B
:104A5000882389F080917B05D0914A0560914405B7
:104A600070914505A0914705B0914805C62FC72311
:104A700016E0D81304C0DF91CF911F91089590E004
:104A8000109711F0CF3F19F401968770F2CF189F5D
:104A90009001199F300D1124F901E55BFA4F418116
:104AA0004713F2CF40814613EFCF42814111ECCF43
:104AB000438154814A1B5B0B483C510528F7809188
:104AC00049058F70806180934905F901E05BFA4FD9
:104AD00080818F708061808384E495E00E948D1EC8
:104AE000DF91CF911F910C941908AF92BF92CF9292
:104AF000DF92EF92FF920F931F93CF93DF93CDB787
:104B0000DEB761970FB6F894DEBF0FBECDBF8C0144
:104B100085E0F801DE011D9601900D928A95E1F77E
:104B2000F80180819181E28024E4A22E25E0B22E5A
:104B300060914705709148056115710509F43EC102
:104B40003091440540914505232F24232F3F09F43C
:104B500035C1C380D480F0904605F601E61BF70B03
:104B6000FF2009F4FBC020914905522F507FE83CFB
:104B7000F10508F0BBC0511178C0FE2C491321C0CB
:104B800038131FC0E1101DC02F702061209349050C
:104B9000C5010E948D1E80914905F80185838F2DE6
:104BA00061960FB6F894DEBF0FBECDBFDF91CF91F7
:104BB0001F910F91FF90EF90DF90CF90BF90AF903B
:104BC0000895CD2829F0282F29232F3F09F014C15B
:104BD00020E0F22FF170DF2E20FF3DC020917B05F9
:104BE00040914A0556E0241315C08D879E878D8518
:104BF0009E850E94EE0F292F22952F702230F8F00B
:104C0000243020F59F70F9F0F8019581907FD9F458
:104C1000D12C1FC030E0529FF001539FF00D1124A2
:104C2000E55BFA4F6181961306C06081861303C06D
:104C30006281E61210C02F5F3F4F2770D4CF9F7064
:104C400011F0882329F3805E883010F3C8010E9498
:104C50008D1EFD2CA4CFEE2009F4A1CF8091490533
:104C6000816080934905F12C9ACF491312C0381303
:104C700010C0E1100EC0F8012583C8010E948D1EEE
:104C800086E0F801A4E4B5E001900D928A95E1F781
:104C900086CF8D879E878D859E850E94F80F8823FD
:104CA00009F1EE20F9F080914905803270F02091F1
:104CB00044053091450538872F831986DB86CA86DF
:104CC0008C87CE0107960E948D1E86E0F801A4E431
:104CD000B5E001900D928A95E1F70E941F25FF240F
:104CE000F3945DCFC8010E948D1EF9CF51110AC007
:104CF00084E495E00E948D1E86E0F50111928A956C
:104D0000E9F7B1CF49130FC038130DC0E1100BC044
:104D1000F8012583C8010E948D1E86E0F5011192DD
:104D20008A95E9F73CCF8D879E878D859E850E9469
:104D3000F80F8823B9F2EE20A9F28091490580325C
:104D400020F220914405309145053A8329831B8246
:104D5000DD82CC828E83CE010196B5CFE83CF10591
:104D6000E0F6FE2CEE2009F4BDCF491316C038132F
:104D700014C08091490580FD83CF982F907F09F45E
:104D80007FCFF8018583903F09F477CF982F907FEC
:104D9000905F8F70892B858370CF8D879E878D85DF
:104DA0009E850E94F80F811190CF80914905816006
:104DB00080934905C8010E948D1EF1CEEE2009F4B2
:104DC00091CF8D879E878D859E850E94F80FF82E46
:104DD000882309F487CF86E0F801A4E4B5E00190C8
:104DE0000D928A95E1F780914405909145050E94C6
:104DF000EE0F0E941F25D3CE21E02E25EACE1F9371
:104E0000CF93DF93CDB7DEB767970FB6F894DEBFC9
:104E10000FBECDBF4B8B5C8B6D8B7E8B8F8B1A8ABD
:104E2000198A85E0FE017396DE011D9601900D92B0
:104E30008A95E1F786E0FE013D96DE011796019026
:104E40000D928A95E1F7CE0107960E947525811192
:104E500012C086E0FE013796DE01119601900D9298
:104E60008A95E1F78A859B85892B29F08F81988522
:104E700089238F3FB1F516E080917B0590914A051B
:104E800089131DC067960FB6F894DEBF0FBECDBF65
:104E9000DF91CF911F91089596E0929FD001939F4B
:104EA000B00D1124A55BBA4FFE01319601900D9211
:104EB0009A95E1F780934A050E941908DCCF819FFB
:104EC000C0011124855B9A4F0E9475258823D1F279
:104ED00080917B0590E001968770992780937B05F0
:104EE000CBCF20914A0530E0C90101968770992700
:104EF00040917B054817190679F60E941A181092FE
:104F00004A0510927B0586E0E4E4F5E0DF011D929E
:104F10008A95E9F7B0CF8F929F92AF92BF92CF92CE
:104F2000DF92EF92FF920F931F93CF93DF938091C5
:104F3000A7019091A801892BA1F08091D7038F5FE1
:104F40008093D70381110DC00E945E1590E090936D
:104F5000A8018093A701892B21F40E94B9110E9416
:104F60004215F7EC8F2EF5E09F2E740100E010E063
:104F7000E7E0CE2EC10E812F0E94D5158C2D0E9408
:104F8000D515812F0E942916E70199917E01D12C18
:104F9000891729F0FE0131978083DD24D3948C2D6D
:104FA0000E942916F7019681891709F47CC086832F
:104FB00081E08D29082B0E9401111F5F1730C1F677
:104FC0000E945B176091D9037091DA039093DA0322
:104FD0008093D9032091D80330E0261B370B820F32
:104FE000931F6BEF70E00E94372FE82E392F182F98
:104FF0008093D803F090DC03FF2009F43DC31092A6
:10500000DC03E091C105F091C205AF01425F5F4F43
:1050100020E07BEFB72E6BEF70E0A191AB3FA1F0EA
:10502000CA2ED12C8E2D932F1A1708F43EC08C193E
:105030009D09092E000CAA0BBB0B4E97A105B105CB
:10504000D0F1DF011197BC92E417F50731F72093F7
:10505000DC03011102C0211111C31092DB03A091E6
:10506000C105B091C2059091DC03EFEDF5E04DEE86
:1050700055E080E03191E40129914E01321751F061
:105080003C913B3FD1F41C93BF0161507109EB018E
:10509000288391E011964E175F0761F79093DC0328
:1050A0008093DB03EFC280E084CFDB01AC19BD0944
:1050B0008A0F9B1FBECF2F2DC7CF81E0EBCFF29E73
:1050C000F001F39EF00D1124E45FFE4FC288D388F7
:1050D000C114D10419F468ECC62ED12CF29EE00163
:1050E000F39ED00D1124C45FDE4F8E818823B9F06A
:1050F0008D859E850E94B506C816D90680F41F9D31
:10510000600111248989811105C0C601845F9E4F09
:105110000E948108C6018E5E9E4F0E94A2081F5FFA
:10512000212F30E08091A601082E000C990B8217E8
:1051300093072CF6AFC21092B40140933A065093F5
:105140003B0660933C0670933D0681E08093B70177
:10515000CFC280910B01C1E018130BC020913E0615
:10516000237080910A0190E0C1E02817190609F424
:10517000C0E0C170C093B601193140F4E12FF0E0F6
:10518000EC57FC4C0C945F2FC11102C0C0E027C04B
:1051900040E060E080E00E944309F8CF8091B401D4
:1051A000C82FCC0FCC0FC80F45E0F42EFC0EEF2C0F
:1051B000D0E3DF1510F430E3E32E60913F067091E9
:1051C0004006809141060E94B40BD62EC72EB82E01
:1051D000D0E0CE15B0F1C1E0FFE2FF15B8F280914A
:1051E000B4018F5F8093B401C11110C282E080933B
:1051F000B7018091B601811109C2112309F41BC2C4
:105200008091DE05811174C28091C30583FD70C257
:105210006091D5057091D6058091D7059091D805FC
:105220000E942307813009F4F5C1823009F4F7C1E7
:105230008091B50181115CC240E060E00E944309A9
:1052400057C2FE01E958FC4F80819091B501892336
:1052500031F02B2D4D2D6C2DCE010E94450921964C
:10526000B8CF8091B401C82FCC0FCC0FC80F25E068
:10527000F22EFC0EEF2C20E32F1510F490E3E92E14
:10528000C0904006D0904106D0913F066D2F7C2DF6
:105290008D2D0E94B40BB62EA72E982E609142063B
:1052A0006D0F7C2D8D2D0E94B40BD62EC72E882E0F
:1052B000D0E0CE1530F0C1E08FE28F1508F08FCF2F
:1052C00065CFFE01E958FC4F90818091B50189239B
:1052D00059F0282D4D2D6C2D90FD03C0292D4B2DFF
:1052E0006A2DCE010E9445092196E3CF8091B40139
:1052F000C82FCC0FCC0FC80F85E0F82EFC0EDF2C8A
:1053000090E39F1510F4D0E3DD2EC0904006B090DE
:10531000410620914206B0E4EB2E3E2D329F312D06
:105320001124E32ED0E0CD1530F0C1E09FE29F15AF
:1053300008F055CF2BCFFE01E958FC4F80819091AA
:10534000B5018923B9F0FE01EE0FFF1FE85EFC4FA7
:10535000808182958F7060913F068E9D600D112433
:105360007C2D8B2D0E94B40B462F282F672FCE014A
:105370000E9445092196D7CF8091B401C82FCC0F48
:10538000CC0FC80FE5E0FE2EFC0EDF2CD0E3DF15BE
:1053900010F470E3D72EC0904006B09041062091E3
:1053A000420660E4E62E3E2D329F312D1124E32E7D
:1053B000D0E0CD1508F0B9CFFE01E958FC4F80814F
:1053C0009091B5018923D9F0FE01EE0FFF1FE95E30
:1053D000FC4F6081E69EB001112455E075956795FC
:1053E0005A95E1F780913F06680F7C2D8B2D0E9426
:1053F000B40B462F282F672FCE010E944509219616
:10540000D8CF8091B401C82FCC0FCC0FC80F35E096
:10541000F32EFC0EEF2CD0E3DF1510F420E3E22E88
:10542000D0903F06D0914006C09041066091420660
:1054300066956695669580913A0690913B060E9426
:10544000AA0B0E94330B805887FD8195880F282F67
:105450003C2D239F212D1124822F6D2D7D2F0E9405
:10546000B40BD62EC72EB82ED0E0CE1508F05DCFE7
:10547000FE01E958FC4F80819091B501892331F0FC
:105480002B2D4D2D6C2DCE010E9445092196EDCF7F
:105490008EE39AE00E94830DC82FA1CE84E19AE0AA
:1054A000F9CF85E19BE00E94270DF6CF86EF9AE0C9
:1054B000FACF8BED9AE00E94AA0CEECF8FEB9AE028
:1054C000FACF82E19AE0E6CF89E09AE0E3CF80E08C
:1054D0009AE0E0CF87EE99E0DDCF89ED99E0EBCF60
:1054E00082E89BE0E0CF8EEA9AE0DDCF8AE99AE09D
:1054F000E2CF8CEA99E00E94480CCECF8EE799E08B
:10550000FACF87E499E0F7CFC1111EC0609142063F
:1055100020E1620F08F46FEF80913A0690913B060C
:105520000E94AA0B6AE070E00E94372F892B09F0D5
:105530002DCE0E94B12F60E370E00E944B2F60914E
:10554000B5010E9457144BCE8091B401C82FCC0FE7
:10555000CC0FC80F95E0D92EDC0E8D2DD0E3DD15D4
:1055600008F480E3D0E0E82EF12CCE15DF0534F00E
:10557000C1E0EFE2ED1508F032CE08CE6091B50142
:10558000CE010E9457142196F0CFC1111EC0609128
:10559000420620E1620F08F46FEF80913A06909185
:1055A0003B060E94AA0B65E070E00E94372F892B12
:1055B00009F0ECCD0E94B12F60E370E00E944B2F08
:1055C0006091B5010E9435140ACE8091B401C82FB4
:1055D000CC0FCC0FC80F85E0D82EDC0E8D2DF0E35C
:1055E000FD1508F480E3D0E0E82EF12CCE15DF05A0
:1055F00034F0C1E02FE22D1508F0F1CDC7CD609158
:10560000B501CE010E9435142196F0CF112309F483
:105610006FC0F6CD81E090E00E94441069C082E046
:1056200090E0FACF10930B0180913E068370809337
:105630000A010E94E11283E089CD40913A0650911F
:105640003B0660913C0670913D062FB7F89480911F
:10565000BC059091BD05A091BE05B091BF052FBFBF
:10566000841B950BA60BB70B4A97A105B10508F44F
:105670003FC01092B7013CC00111EFCC8091DB0319
:105680008111EBCC8091A60110E056E1F52E8F3F01
:1056900009F046CD8FB7F8944091BC055091BD05F7
:1056A0006091BE057091BF058FBF4093DD0350939D
:1056B000DE036093DF037093E0038091DE0510E06A
:1056C000811108C080913E06182F137019F0182F11
:1056D000169516958091B701813009F43ACD88234B
:1056E00009F429CD823009F49DCF833009F4A5CF88
:1056F000802FDF91CF911F910F91FF90EF90DF905E
:10570000CF90BF90AF909F908F900895CDB7DEB7A8
:105710002F970FB6F894DEBF0FBECDBF84B7877F3B
:1057200084BF0FB6F894A89580916000886180933B
:105730006000109260000FBE80E890E00FB6F89411
:1057400080936100909361000FBE85B7806885BF2C
:1057500085B7806885BF0E94F9030E94C4048091C8
:10576000E20084608093E200789480912D06882383
:10577000A1F01091E9001F709091EC00892F8170C9
:1057800090FD80E8182B1092E9008091E80083FDDD
:105790000E942F181F701093E90082E084BD93E0EF
:1057A00095BD9AEF97BD80936E000E945E1590E0C4
:1057B0009093A8018093A7010E9401110E941011EB
:1057C000E7ECF5E085ED95E0AFEDB5E011921D92C7
:1057D0008E179F07D9F78EE090E00E94C12F80932B
:1057E000C1059093C205FC010E962BEF21938E17F5
:1057F0009F07E1F790E080E00E940A318F3E9E4FC4
:1058000011F00E9441120E94421589EA80938000A3
:1058100089E08093810024982C983F988AB18F7CEE
:105820008AB96E98479A8BB180638BB9769A8FE06C
:1058300090E00E9404316093C3057093C405809387
:10584000C5059093C60567708FEF869FB001112440
:10585000759567957595679577277093890060931F
:10586000880070938B0060938A0070938D00609322
:105870008C009091C30594FF5DC18093B5010E9497
:10588000B91190E080E00E940A318F3E9E4F11F0E6
:105890000E94411282E090E00E94FC308093F90562
:1058A0000E9433129093DA058093D90583E090E04B
:1058B0000E94FC30682F70E090E080E00E94101899
:1058C0006091D5057091D6058091D7059091D80546
:1058D0000E94CD100E9436090E9436090E949D1434
:1058E00089EA91E09093DC058093DB0598E1E92E4D
:1058F000F12C2DEEC22E25E0D22E8FED95E03EE06C
:10590000A32EA80EBB24B39480912D06853079F484
:1059100080E4982E00E112E180912D06853009F493
:105920000CC10E941A180E9475081092DE050E9490
:105930008B27EAEFF5E0AFEDB5E010E000E0302FA7
:105940008D912191281709F449C190E099249394ED
:105950002827422F492109F43CC19E833F83892196
:1059600091E009F490E098870E945B178160782F9E
:105970009A8789874E815F8168858A850E94FF2684
:10598000F801E650FA4F80819826908285E0E3EF97
:10599000F5E0DE01119601900D928A95E1F7909065
:1059A000F4058090F5051091F6050091F705109229
:1059B000F4051092F5051092F6051092F705892D61
:1059C000882909F448C08091F1059091F2050E9460
:1059D000B5069C019091F005992309F43DC125314C
:1059E0003105C8F19F3F19F09F5F9093F005992012
:1059F00059F00E9429069FEF19140CF491E0899F39
:105A0000802D11248093F405882059F00E942906E6
:105A10009FEF18140CF491E0899F802D112480933E
:105A2000F5053091F4053323B1F02091F5052223DB
:105A300091F045EB3403C0011124992309F4E5C02A
:105A40009093F40545EB240390011124332309F4CA
:105A5000DFC03093F505812F802B09F448C0809179
:105A6000EE059091EF050E94B5069C019091ED0521
:105A7000992309F4ECC025313105C8F19F3F19F095
:105A80009F5F9093ED05112359F00E9409069FEF47
:105A900011160CF491E0899F802D11248093F60556
:105AA000002359F00E9409069FEF10160CF491E0B4
:105AB000899F802D11248093F7053091F6053323BB
:105AC000B1F02091F705222391F045EB3403C0019A
:105AD0001124992309F49FC09093F60545EB240304
